{
  "contractName": "CoinSpin",
  "abi": [
    {
      "constant": true,
      "inputs": [],
      "name": "lockedBets",
      "outputs": [
        {
          "name": "",
          "type": "uint128"
        }
      ],
      "payable": false,
      "stateMutability": "view",
      "type": "function"
    },
    {
      "constant": true,
      "inputs": [],
      "name": "secretSigner",
      "outputs": [
        {
          "name": "",
          "type": "address"
        }
      ],
      "payable": false,
      "stateMutability": "view",
      "type": "function"
    },
    {
      "constant": true,
      "inputs": [],
      "name": "croupier",
      "outputs": [
        {
          "name": "",
          "type": "address"
        }
      ],
      "payable": false,
      "stateMutability": "view",
      "type": "function"
    },
    {
      "constant": true,
      "inputs": [],
      "name": "owner",
      "outputs": [
        {
          "name": "",
          "type": "address"
        }
      ],
      "payable": false,
      "stateMutability": "view",
      "type": "function"
    },
    {
      "constant": true,
      "inputs": [],
      "name": "maxProfit",
      "outputs": [
        {
          "name": "",
          "type": "uint256"
        }
      ],
      "payable": false,
      "stateMutability": "view",
      "type": "function"
    },
    {
      "inputs": [],
      "payable": false,
      "stateMutability": "nonpayable",
      "type": "constructor"
    },
    {
      "payable": true,
      "stateMutability": "payable",
      "type": "fallback"
    },
    {
      "anonymous": false,
      "inputs": [
        {
          "indexed": true,
          "name": "beneficiary",
          "type": "address"
        },
        {
          "indexed": false,
          "name": "amount",
          "type": "uint256"
        }
      ],
      "name": "FailedPayment",
      "type": "event"
    },
    {
      "anonymous": false,
      "inputs": [
        {
          "indexed": true,
          "name": "beneficiary",
          "type": "address"
        },
        {
          "indexed": false,
          "name": "amount",
          "type": "uint256"
        }
      ],
      "name": "Payment",
      "type": "event"
    },
    {
      "anonymous": false,
      "inputs": [
        {
          "indexed": false,
          "name": "commit",
          "type": "uint256"
        }
      ],
      "name": "Commit",
      "type": "event"
    },
    {
      "constant": false,
      "inputs": [
        {
          "name": "_nextOwner",
          "type": "address"
        }
      ],
      "name": "approveNextOwner",
      "outputs": [],
      "payable": false,
      "stateMutability": "nonpayable",
      "type": "function"
    },
    {
      "constant": false,
      "inputs": [],
      "name": "acceptNextOwner",
      "outputs": [],
      "payable": false,
      "stateMutability": "nonpayable",
      "type": "function"
    },
    {
      "constant": false,
      "inputs": [
        {
          "name": "newSecretSigner",
          "type": "address"
        }
      ],
      "name": "setSecretSigner",
      "outputs": [],
      "payable": false,
      "stateMutability": "nonpayable",
      "type": "function"
    },
    {
      "constant": false,
      "inputs": [
        {
          "name": "newCroupier",
          "type": "address"
        }
      ],
      "name": "setCroupier",
      "outputs": [],
      "payable": false,
      "stateMutability": "nonpayable",
      "type": "function"
    },
    {
      "constant": false,
      "inputs": [
        {
          "name": "_maxBet",
          "type": "uint256"
        }
      ],
      "name": "setMaxBet",
      "outputs": [],
      "payable": false,
      "stateMutability": "nonpayable",
      "type": "function"
    },
    {
      "constant": false,
      "inputs": [
        {
          "name": "beneficiary",
          "type": "address"
        },
        {
          "name": "withdrawAmount",
          "type": "uint256"
        }
      ],
      "name": "withdrawFunds",
      "outputs": [],
      "payable": false,
      "stateMutability": "nonpayable",
      "type": "function"
    },
    {
      "constant": false,
      "inputs": [],
      "name": "kill",
      "outputs": [],
      "payable": false,
      "stateMutability": "nonpayable",
      "type": "function"
    },
    {
      "constant": false,
      "inputs": [
        {
          "name": "betMask",
          "type": "uint256"
        },
        {
          "name": "betOptions",
          "type": "uint256"
        },
        {
          "name": "commitLastBlock",
          "type": "uint256"
        },
        {
          "name": "commit",
          "type": "uint256"
        },
        {
          "name": "r",
          "type": "bytes32"
        },
        {
          "name": "s",
          "type": "bytes32"
        }
      ],
      "name": "placeBet",
      "outputs": [],
      "payable": true,
      "stateMutability": "payable",
      "type": "function"
    },
    {
      "constant": false,
      "inputs": [
        {
          "name": "reveal",
          "type": "uint256"
        },
        {
          "name": "blockHash",
          "type": "bytes32"
        }
      ],
      "name": "settleBet",
      "outputs": [],
      "payable": false,
      "stateMutability": "nonpayable",
      "type": "function"
    },
    {
      "constant": false,
      "inputs": [
        {
          "name": "reveal",
          "type": "uint256"
        },
        {
          "name": "canonicalBlockNumber",
          "type": "uint40"
        }
      ],
      "name": "settleBetUncleMerkleProof",
      "outputs": [],
      "payable": false,
      "stateMutability": "nonpayable",
      "type": "function"
    },
    {
      "constant": false,
      "inputs": [
        {
          "name": "commit",
          "type": "uint256"
        }
      ],
      "name": "refundBet",
      "outputs": [],
      "payable": false,
      "stateMutability": "nonpayable",
      "type": "function"
    }
  ],
  "bytecode": "0x608060405234801561001057600080fd5b50336000806101000a81548173ffffffffffffffffffffffffffffffffffffffff021916908373ffffffffffffffffffffffffffffffffffffffff16021790555073eeeeeeeeeeeeeeeeeeeeeeeeeeeeeeeeeeeeeeee600360006101000a81548173ffffffffffffffffffffffffffffffffffffffff021916908373ffffffffffffffffffffffffffffffffffffffff16021790555073eeeeeeeeeeeeeeeeeeeeeeeeeeeeeeeeeeeeeeee600660006101000a81548173ffffffffffffffffffffffffffffffffffffffff021916908373ffffffffffffffffffffffffffffffffffffffff160217905550612b328061010a6000396000f3fe6080604052600436106100f25760003560e01c8063b539cd551161008a578063d579fd4411610059578063d579fd4414610428578063d702087f14610479578063e1fdb4b4146104ca578063f8bb201c14610505576100f2565b8063b539cd5514610346578063c107532914610371578063ca722cdc146103cc578063d06c54fb14610411576100f2565b80636b5c5f39116100c65780636b5c5f391461021157806374e048d514610268578063881eff1e146102b45780638da5cb5b146102ef576100f2565b8062336d04146100f457806341c0e1b5146101435780634d61537f1461015a5780635e83b463146101b1575b005b34801561010057600080fd5b50610109610556565b60405180826fffffffffffffffffffffffffffffffff166fffffffffffffffffffffffffffffffff16815260200191505060405180910390f35b34801561014f57600080fd5b50610158610578565b005b34801561016657600080fd5b5061016f6106e0565b604051808273ffffffffffffffffffffffffffffffffffffffff1673ffffffffffffffffffffffffffffffffffffffff16815260200191505060405180910390f35b61020f600480360360c08110156101c757600080fd5b81019080803590602001909291908035906020019092919080359060200190929190803590602001909291908035906020019092919080359060200190929190505050610706565b005b34801561021d57600080fd5b50610226610e1f565b604051808273ffffffffffffffffffffffffffffffffffffffff1673ffffffffffffffffffffffffffffffffffffffff16815260200191505060405180910390f35b34801561027457600080fd5b506102b26004803603604081101561028b57600080fd5b8101908080359060200190929190803564ffffffffff169060200190929190505050610e45565b005b3480156102c057600080fd5b506102ed600480360360208110156102d757600080fd5b8101908080359060200190929190505050610fda565b005b3480156102fb57600080fd5b506103046110ea565b604051808273ffffffffffffffffffffffffffffffffffffffff1673ffffffffffffffffffffffffffffffffffffffff16815260200191505060405180910390f35b34801561035257600080fd5b5061035b61110f565b6040518082815260200191505060405180910390f35b34801561037d57600080fd5b506103ca6004803603604081101561039457600080fd5b81019080803573ffffffffffffffffffffffffffffffffffffffff16906020019092919080359060200190929190505050611115565b005b3480156103d857600080fd5b5061040f600480360360408110156103ef57600080fd5b8101908080359060200190929190803590602001909291905050506112db565b005b34801561041d57600080fd5b506104266114ba565b005b34801561043457600080fd5b506104776004803603602081101561044b57600080fd5b81019080803573ffffffffffffffffffffffffffffffffffffffff1690602001909291905050506115c4565b005b34801561048557600080fd5b506104c86004803603602081101561049c57600080fd5b81019080803573ffffffffffffffffffffffffffffffffffffffff169060200190929190505050611770565b005b3480156104d657600080fd5b50610503600480360360208110156104ed57600080fd5b8101908080359060200190929190505050611859565b005b34801561051157600080fd5b506105546004803603602081101561052857600080fd5b81019080803573ffffffffffffffffffffffffffffffffffffffff169060200190929190505050611a1a565b005b600460009054906101000a90046fffffffffffffffffffffffffffffffff1681565b6000809054906101000a900473ffffffffffffffffffffffffffffffffffffffff1673ffffffffffffffffffffffffffffffffffffffff163373ffffffffffffffffffffffffffffffffffffffff161461061d576040517f08c379a0000000000000000000000000000000000000000000000000000000008152600401808060200182810382526026815260200180612a9d6026913960400191505060405180910390fd5b6000600460009054906101000a90046fffffffffffffffffffffffffffffffff166fffffffffffffffffffffffffffffffff16146106a6576040517f08c379a0000000000000000000000000000000000000000000000000000000008152600401808060200182810382526048815260200180612a016048913960600191505060405180910390fd5b6000809054906101000a900473ffffffffffffffffffffffffffffffffffffffff1673ffffffffffffffffffffffffffffffffffffffff16ff5b600360009054906101000a900473ffffffffffffffffffffffffffffffffffffffff1681565b6000600560008581526020019081526020016000209050600073ffffffffffffffffffffffffffffffffffffffff1681600101600c9054906101000a900473ffffffffffffffffffffffffffffffffffffffff1673ffffffffffffffffffffffffffffffffffffffff16146107c6576040517f08c379a000000000000000000000000000000000000000000000000000000000815260040180806020018281038252602181526020018061285a6021913960400191505060405180910390fd5b60003490506001871180156107dc575060148711155b610831576040517f08c379a00000000000000000000000000000000000000000000000000000000081526004018080602001828103825260348152602001806129cd6034913960400191505060405180910390fd5b662386f26fc10000811015801561085157506801158e460913d000008111155b6108c3576040517f08c379a000000000000000000000000000000000000000000000000000000000815260040180806020018281038252601d8152602001807f5374616b652073686f756c642062652077697468696e2072616e67652e00000081525060200191505060405180910390fd5b85431115610939576040517f08c379a00000000000000000000000000000000000000000000000000000000081526004018080602001828103825260138152602001807f436f6d6d69742068617320657870697265642e0000000000000000000000000081525060200191505060405180910390fd5b60008686604051602001808364ffffffffff1664ffffffffff1660d81b815260050182815260200192505050604051602081830303815290604052805190602001209050600181601b878760405160008152602001604052604051808581526020018460ff1681526020018381526020018281526020019450505050506020604051602081039080840390855afa1580156109d8573d6000803e3d6000fd5b5050506020604051035173ffffffffffffffffffffffffffffffffffffffff16600360009054906101000a900473ffffffffffffffffffffffffffffffffffffffff1673ffffffffffffffffffffffffffffffffffffffff1614610aa4576040517f08c379a000000000000000000000000000000000000000000000000000000000815260040180806020018281038252601d8152602001807f4543445341207369676e6174757265206973206e6f742076616c69642e00000081525060200191505060405180910390fd5b60008060288a11610b0157603f7e010410410410410410410410410410410410410410410410410410410410417920000000001000000000080000000004000000000200000000018d021681610af657fe5b0691508a9050610b87565b60008b118015610b115750898b11155b610b83576040517f08c379a00000000000000000000000000000000000000000000000000000000081526004018080602001828103825260158152602001807f546f6f206d616e7920626574206f7074696f6e732e000000000000000000000081525060200191505060405180910390fd5b8a91505b6000610b94858c85611b03565b90506002548501811115610c10576040517f08c379a000000000000000000000000000000000000000000000000000000000815260040180806020018281038252601d8152602001807f4d6178696d756d2050726f666974204c696d697420457863656564656400000081525060200191505060405180910390fd5b80600460008282829054906101000a90046fffffffffffffffffffffffffffffffff160192506101000a8154816fffffffffffffffffffffffffffffffff02191690836fffffffffffffffffffffffffffffffff1602179055503073ffffffffffffffffffffffffffffffffffffffff1631600460009054906101000a90046fffffffffffffffffffffffffffffffff166fffffffffffffffffffffffffffffffff161115610d0a576040517f08c379a000000000000000000000000000000000000000000000000000000000815260040180806020018281038252602e815260200180612a6f602e913960400191505060405180910390fd5b7f5bdd2fc99022530157777690475b670d3872f32262eb1d47d9ba8000dad58f87896040518082815260200191505060405180910390a18486600001819055508a8660010160006101000a81548160ff021916908360ff160217905550828660010160016101000a81548160ff021916908360ff160217905550438660010160026101000a81548164ffffffffff021916908364ffffffffff160217905550818660010160076101000a81548164ffffffffff021916908364ffffffffff1602179055503386600101600c6101000a81548173ffffffffffffffffffffffffffffffffffffffff021916908373ffffffffffffffffffffffffffffffffffffffff160217905550505050505050505050505050565b600660009054906101000a900473ffffffffffffffffffffffffffffffffffffffff1681565b600660009054906101000a900473ffffffffffffffffffffffffffffffffffffffff1673ffffffffffffffffffffffffffffffffffffffff163373ffffffffffffffffffffffffffffffffffffffff1614610eeb576040517f08c379a000000000000000000000000000000000000000000000000000000000815260040180806020018281038252602c815260200180612964602c913960400191505060405180910390fd5b600082604051602001808281526020019150506040516020818303038152906040528051906020012060001c9050600060056000838152602001908152602001600020905060fa8364ffffffffff1601431115610f93576040517f08c379a0000000000000000000000000000000000000000000000000000000008152600401808060200182810382526022815260200180612ae56022913960400191505060405180910390fd5b610f9d6048611c24565b600080610fab84604461213d565b8092508193505050818564ffffffffff164014610fc757600080fd5b610fd2838783612476565b505050505050565b6000809054906101000a900473ffffffffffffffffffffffffffffffffffffffff1673ffffffffffffffffffffffffffffffffffffffff163373ffffffffffffffffffffffffffffffffffffffff161461107f576040517f08c379a0000000000000000000000000000000000000000000000000000000008152600401808060200182810382526026815260200180612a9d6026913960400191505060405180910390fd5b6801158e460913d0000081106110e0576040517f08c379a00000000000000000000000000000000000000000000000000000000081526004018080602001828103825260248152602001806127b06024913960400191505060405180910390fd5b8060028190555050565b6000809054906101000a900473ffffffffffffffffffffffffffffffffffffffff1681565b60025481565b6000809054906101000a900473ffffffffffffffffffffffffffffffffffffffff1673ffffffffffffffffffffffffffffffffffffffff163373ffffffffffffffffffffffffffffffffffffffff16146111ba576040517f08c379a0000000000000000000000000000000000000000000000000000000008152600401808060200182810382526026815260200180612a9d6026913960400191505060405180910390fd5b3073ffffffffffffffffffffffffffffffffffffffff163181111561122a576040517f08c379a000000000000000000000000000000000000000000000000000000000815260040180806020018281038252602681526020018061293e6026913960400191505060405180910390fd5b3073ffffffffffffffffffffffffffffffffffffffff163181600460009054906101000a90046fffffffffffffffffffffffffffffffff166fffffffffffffffffffffffffffffffff160111156112cc576040517f08c379a00000000000000000000000000000000000000000000000000000000081526004018080602001828103825260218152602001806127f56021913960400191505060405180910390fd5b6112d782828361265f565b5050565b600660009054906101000a900473ffffffffffffffffffffffffffffffffffffffff1673ffffffffffffffffffffffffffffffffffffffff163373ffffffffffffffffffffffffffffffffffffffff1614611381576040517f08c379a000000000000000000000000000000000000000000000000000000000815260040180806020018281038252602c815260200180612964602c913960400191505060405180910390fd5b600082604051602001808281526020019150506040516020818303038152906040528051906020012060001c9050600060056000838152602001908152602001600020905060008160010160029054906101000a900464ffffffffff1664ffffffffff16905080431161143f576040517f08c379a00000000000000000000000000000000000000000000000000000000081526004018080602001828103825260338152602001806128a16033913960400191505060405180910390fd5b60fa810143111561149b576040517f08c379a0000000000000000000000000000000000000000000000000000000008152600401808060200182810382526022815260200180612ae56022913960400191505060405180910390fd5b838140146114a857600080fd5b6114b3828686612476565b5050505050565b600160009054906101000a900473ffffffffffffffffffffffffffffffffffffffff1673ffffffffffffffffffffffffffffffffffffffff163373ffffffffffffffffffffffffffffffffffffffff1614611560576040517f08c379a000000000000000000000000000000000000000000000000000000000815260040180806020018281038252602681526020018061278a6026913960400191505060405180910390fd5b600160009054906101000a900473ffffffffffffffffffffffffffffffffffffffff166000806101000a81548173ffffffffffffffffffffffffffffffffffffffff021916908373ffffffffffffffffffffffffffffffffffffffff160217905550565b6000809054906101000a900473ffffffffffffffffffffffffffffffffffffffff1673ffffffffffffffffffffffffffffffffffffffff163373ffffffffffffffffffffffffffffffffffffffff1614611669576040517f08c379a0000000000000000000000000000000000000000000000000000000008152600401808060200182810382526026815260200180612a9d6026913960400191505060405180910390fd5b6000809054906101000a900473ffffffffffffffffffffffffffffffffffffffff1673ffffffffffffffffffffffffffffffffffffffff168173ffffffffffffffffffffffffffffffffffffffff16141561172c576040517f08c379a000000000000000000000000000000000000000000000000000000000815260040180806020018281038252601d8152602001807f43616e6e6f7420617070726f76652063757272656e74206f776e65722e00000081525060200191505060405180910390fd5b80600160006101000a81548173ffffffffffffffffffffffffffffffffffffffff021916908373ffffffffffffffffffffffffffffffffffffffff16021790555050565b6000809054906101000a900473ffffffffffffffffffffffffffffffffffffffff1673ffffffffffffffffffffffffffffffffffffffff163373ffffffffffffffffffffffffffffffffffffffff1614611815576040517f08c379a0000000000000000000000000000000000000000000000000000000008152600401808060200182810382526026815260200180612a9d6026913960400191505060405180910390fd5b80600360006101000a81548173ffffffffffffffffffffffffffffffffffffffff021916908373ffffffffffffffffffffffffffffffffffffffff16021790555050565b600060056000838152602001908152602001600020905060008160000154905060008114156118d3576040517f08c379a00000000000000000000000000000000000000000000000000000000081526004018080602001828103825260228152602001806128386022913960400191505060405180910390fd5b60fa8260010160029054906101000a900464ffffffffff1664ffffffffff1601431161194a576040517f08c379a00000000000000000000000000000000000000000000000000000000081526004018080602001828103825260218152602001806127d46021913960400191505060405180910390fd5b600082600001819055506000611989828460010160009054906101000a900460ff1660ff168560010160019054906101000a900460ff1660ff16611b03565b905080600460008282829054906101000a90046fffffffffffffffffffffffffffffffff160392506101000a8154816fffffffffffffffffffffffffffffffff02191690836fffffffffffffffffffffffffffffffff160217905550611a1483600101600c9054906101000a900473ffffffffffffffffffffffffffffffffffffffff16838461265f565b50505050565b6000809054906101000a900473ffffffffffffffffffffffffffffffffffffffff1673ffffffffffffffffffffffffffffffffffffffff163373ffffffffffffffffffffffffffffffffffffffff1614611abf576040517f08c379a0000000000000000000000000000000000000000000000000000000008152600401808060200182810382526026815260200180612a9d6026913960400191505060405180910390fd5b80600660006101000a81548173ffffffffffffffffffffffffffffffffffffffff021916908373ffffffffffffffffffffffffffffffffffffffff16021790555050565b6000816000108015611b155750828211155b611b87576040517f08c379a000000000000000000000000000000000000000000000000000000000815260040180806020018281038252601d8152602001807f57696e2070726f626162696c697479206f7574206f662072616e67652e00000081525060200191505060405180910390fd5b600060646002860281611b9657fe5b04905066016bcc41e90000811015611bb35766016bcc41e9000090505b84811115611c0c576040517f08c379a00000000000000000000000000000000000000000000000000000000081526004018080602001828103825260228152602001806128166022913960400191505060405180910390fd5b82848287030281611c1957fe5b049150509392505050565b6000813560001a905060f7811015611c87576040517f08c379a0000000000000000000000000000000000000000000000000000000008152600401808060200182810382526022815260200180612ac36022913960400191505060405180910390fd5b60f68103820191506000823560001a9050607f8111611cab57600183019250611d38565b60808110158015611cbd575060b78111155b611d2f576040517f08c379a00000000000000000000000000000000000000000000000000000000081526004018080602001828103825260168152602001807f5061746820697320616e20524c5020737472696e672e0000000000000000000081525060200191505060405180910390fd5b607f8103830192505b6000833560001a905060b98114611d9a576040517f08c379a00000000000000000000000000000000000000000000000000000000081526004018080602001828103825260448152602001806128fa6044913960600191505060405180910390fd5b6003840193506000843560001a905060f98114611e02576040517f08c379a000000000000000000000000000000000000000000000000000000000815260040180806020018281038252603d815260200180612990603d913960400191505060405180910390fd5b6003850194506000853560001a905060018114611e87576040517f08c379a00000000000000000000000000000000000000000000000000000000081526004018080602001828103825260198152602001807f5374617475732073686f756c6420626520737563636573732e0000000000000081525060200191505060405180910390fd5b6001860195506000863560001a9050607f8111611ea957600187019650611f36565b60808110158015611ebb575060b78111155b611f2d576040517f08c379a00000000000000000000000000000000000000000000000000000000081526004018080602001828103825260208152602001807f43756d756c61746976652067617320697320616e20524c5020737472696e672e81525060200191505060405180910390fd5b607f8103870196505b6000873560001a905060b98114611f98576040517f08c379a00000000000000000000000000000000000000000000000000000000081526004018080602001828103825260268152602001806128d46026913960400191505060405180910390fd5b610103880197506000883560001a905060f88114612001576040517f08c379a000000000000000000000000000000000000000000000000000000000815260040180806020018281038252602681526020018061287b6026913960400191505060405180910390fd5b6002890198506000893560001a905060f88114612069576040517f08c379a0000000000000000000000000000000000000000000000000000000008152600401808060200182810382526026815260200180612a496026913960400191505060405180910390fd5b60028a01995060008a3560001a9050609481146120ee576040517f08c379a00000000000000000000000000000000000000000000000000000000081526004018080602001828103825260198152602001807f41646472657373206973203230206279746573206c6f6e672e0000000000000081525060200191505060405180910390fd5b600073ffffffffffffffffffffffffffffffffffffffff600b8d03351690503073ffffffffffffffffffffffffffffffffffffffff16811461212f57600080fd5b505050505050505050505050565b600080600060405190506000806000805b61ffff601e890335169250600083141561216757612288565b61ffff601c890335169150826020830111156121eb576040517f08c379a00000000000000000000000000000000000000000000000000000000081526004018080602001828103825260138152602001807f536869667420626f756e647320636865636b2e0000000000000000000000000081525060200191505060405180910390fd5b6004880197508188013590506000811461226d576040517f08c379a00000000000000000000000000000000000000000000000000000000081526004018080602001828103825260148152602001807f4e6f6e2d656d707479206861736820736c6f742e00000000000000000000000081525060200191505060405180910390fd5b8288863788828601528285209850829350828801975061214e565b8860001b955060008486019050600061ffff601c8b0335169050600061ffff601a8c0335169050818782011115612327576040517f08c379a00000000000000000000000000000000000000000000000000000000081526004018080602001828103825260138152602001807f536869667420626f756e647320636865636b2e0000000000000000000000000081525060200191505060405180910390fd5b60068b019a50818b843761233e8184018989612740565b8183209b50818b019a5061ffff601e8c033516955061ffff601c8c0335169450856020860111156123d7576040517f08c379a00000000000000000000000000000000000000000000000000000000081526004018080602001828103825260138152602001807f536869667420626f756e647320636865636b2e0000000000000000000000000081525060200191505060405180910390fd5b60048b019a50848b0135935060008414612459576040517f08c379a00000000000000000000000000000000000000000000000000000000081526004018080602001828103825260148152602001807f4e6f6e2d656d707479206861736820736c6f742e00000000000000000000000081525060200191505060405180910390fd5b858b89378b85890152858820995050505050505050509250929050565b60008360000154905060008460010160009054906101000a900460ff1660ff16905060008560010160019054906101000a900460ff1660ff169050600086600101600c9054906101000a900473ffffffffffffffffffffffffffffffffffffffff1690506000841415612534576040517f08c379a00000000000000000000000000000000000000000000000000000000081526004018080602001828103825260228152602001806128386022913960400191505060405180910390fd5b600087600001819055506000868660405160200180838152602001828152602001925050506040516020818303038152906040528051906020012090506000848260001c8161257f57fe5b069050600061258f878787611b03565b90506000809050602887116125d05760008b60010160079054906101000a900464ffffffffff1664ffffffffff168460020a16146125cb578190505b6125dd565b858310156125dc578190505b5b81600460008282829054906101000a90046fffffffffffffffffffffffffffffffff160392506101000a8154816fffffffffffffffffffffffffffffffff02191690836fffffffffffffffffffffffffffffffff1602179055506126528560008314612649578261264c565b60015b8361265f565b5050505050505050505050565b8273ffffffffffffffffffffffffffffffffffffffff166108fc839081150290604051600060405180830381858888f19350505050156126ec578273ffffffffffffffffffffffffffffffffffffffff167fd4f43975feb89f48dd30cabbb32011045be187d1e11c8ea9faa43efc35282519826040518082815260200191505060405180910390a261273b565b8273ffffffffffffffffffffffffffffffffffffffff167fac464fe4d3a86b9121261ac0a01dd981bfe0777c7c9d9c8f4473d31a9c0f9d2d836040518082815260200191505060405180910390a25b505050565b5b602081106127645781518352602083019250602082019150602081039050612741565b60006001826020036101000a039050801983511681855116818117865250505050505056fe43616e206f6e6c792061636365707420707265617070726f766564206e6577206f776e65722e53697a65206f66206265742073686f756c6420626520612073616e65206e756d6265722e426c6f636b686173682063616e277420626520717565726965642062792045564d4e6f7420656e6f7567682066756e647320284e42204c6f636b656420426574732942657420646f65736e2774206576656e20636f76657220686f75736520656467652e4265742073686f756c6420626520696e20616e2027616374697665272073746174654265742073686f756c6420626520696e20612027636c65616e272073746174652e4c6f6773206c697374206973206c657373207468616e20323536206279746573206c6f6e672e736574746c6542657420696e207468652073616d6520626c6f636b20617320706c6163654265742c206f72206265666f72652e426c6f6f6d2066696c74657220697320616c7761797320323536206279746573206c6f6e672e5265636569707420737472696e6720697320616c77617973206174206c6561737420323536206279746573206c6f6e672c20627574206c657373207468616e2036346b2e5769746864726177616c20616d6f756e74206c6172676572207468616e2062616c616e63652e4f6e6c7943726f7570696572206d6574686f64732063616c6c6564206279206e6f6e2d63726f75706965722e5265636569707420697320616c77617973206174206c6561737420323536206279746573206c6f6e672c20627574206c657373207468616e2036346b2e4e756d626572206f66206265747461626c65207363656e6172696f732073686f756c642062652077697468696e2072616e67652e416c6c20626574732073686f756c642062652070726f6365737365642028736574746c6564206f7220726566756e64656429206265666f72652073656c662d64657374727563742e4c6f6720656e747279206973206c657373207468616e20323536206279746573206c6f6e672e436f6e74726163742063616e6e6f74206166666f726420666f7220796f7520746f2077696e2074686973206265744f6e6c794f776e6572206d6574686f64732063616c6c6564206279206e6f6e2d6f776e65722e52656365697074206c656166206c6f6e676572207468616e2035352062797465732e426c6f636b686173682063616e277420626520717565726965642062792045564d2ea165627a7a72305820caad5afbc9c79be589c01068f544f5c4c480fba21429e5c71f072876287117070029",
  "source": "pragma solidity ^0.5.8;\n\ncontract CoinSpin {\n\tuint constant HOUSE_EDGE_PERCENT = 2;\n\tuint constant HOUSE_EDGE_MIN = 0.0004 ether;\n\tuint constant MIN_BET = 0.01 ether;\n\tuint constant MAX_BET = 20 ether;\n\n\tuint constant MAX_OUTCOMES = 20;\n\tuint constant MAX_MASK_BITS = 40;\n\tuint constant MAX_BET_MASK = 2 ** MAX_MASK_BITS;\n\n\tuint constant BET_EXP_BLOCKS = 250;\n\n\taddress constant DUMMY_ADDR = 0xEeeeeEeeeEeEeeEeEeEeeEEEeeeeEeeeeeeeEEeE;\n\n\taddress payable public owner;\n\taddress payable private nextOwner;\n\n\tuint public maxProfit;\n\n\taddress public secretSigner;\n\n\tuint128 public lockedBets;\n\n\tstruct Bet {\n\t\tuint amount;\n\t\tuint8 betOptions;\n\t\tuint8 rollUnder;\n\t\tuint40 placeBetTxBlockNumber;\n\t\tuint40 mask;\n\t\taddress payable bettor;\n\t}\n\n\tmapping (uint => Bet) bets;\n\n\taddress public croupier;\n\n\tevent FailedPayment(address indexed beneficiary, uint amount);\n    event Payment(address indexed beneficiary, uint amount);\n\n    event Commit(uint commit);\n\n    constructor () public {\n        owner = msg.sender;\n        secretSigner = DUMMY_ADDR;\n        croupier = DUMMY_ADDR;\n    }\n\n    modifier onlyOwner {\n        require (msg.sender == owner, \"OnlyOwner methods called by non-owner.\");\n        _;\n    }\n\n    modifier onlyCroupier {\n        require (msg.sender == croupier, \"OnlyCroupier methods called by non-croupier.\");\n        _;\n    }\n\n    function approveNextOwner(address payable _nextOwner) external onlyOwner {\n        require (_nextOwner != owner, \"Cannot approve current owner.\");\n        nextOwner = _nextOwner;\n    }\n\n    function acceptNextOwner() external {\n        require (msg.sender == nextOwner, \"Can only accept preapproved new owner.\");\n        owner = nextOwner;\n    }\n\n    function () external payable {\n    }\n\n    function setSecretSigner(address newSecretSigner) external onlyOwner {\n        secretSigner = newSecretSigner;\n    }\n\n    function setCroupier(address newCroupier) external onlyOwner {\n        croupier = newCroupier;\n    }\n\n    function setMaxBet(uint _maxBet) public onlyOwner {\n        require (_maxBet < MAX_BET, \"Size of bet should be a sane number.\");\n        maxProfit = _maxBet;\n    }\n\n    function withdrawFunds(address payable beneficiary, uint withdrawAmount) external onlyOwner {\n        require (withdrawAmount <= address(this).balance, \"Withdrawal amount larger than balance.\");\n        require (lockedBets + withdrawAmount <= address(this).balance, \"Not enough funds (NB Locked Bets)\");\n        sendFunds(beneficiary, withdrawAmount, withdrawAmount);\n    }\n\n    function kill() external onlyOwner {\n        require (lockedBets == 0, \"All bets should be processed (settled or refunded) before self-destruct.\");\n        selfdestruct(owner);\n    }\n\n    function placeBet(uint betMask, uint betOptions, uint commitLastBlock, uint commit, bytes32 r, bytes32 s) external payable {\n    \tBet storage bet = bets[commit];\n        require (bet.bettor == address(0), \"Bet should be in a 'clean' state.\");\n\n        uint amount = msg.value;\n        require (betOptions > 1 && betOptions <= MAX_OUTCOMES, \"Number of bettable scenarios should be within range.\");\n        require (amount >= MIN_BET && amount <= MAX_BET, \"Stake should be within range.\");\n\n        require (block.number <= commitLastBlock, \"Commit has expired.\");\n        bytes32 signatureHash = keccak256(abi.encodePacked(uint40(commitLastBlock), commit));\n        require (secretSigner == ecrecover(signatureHash, 27, r, s), \"ECDSA signature is not valid.\");\n\n        uint rollUnder;\n        uint mask;\n\n        if (betOptions <= MAX_MASK_BITS) {\n        \trollUnder = ((betMask * POPCNT_MULT) & POPCNT_MASK) % POPCNT_MODULO;\n            mask = betMask;\n        } else {\n            require (betMask > 0 && betMask <= betOptions, \"Too many bet options.\");\n            rollUnder = betMask;\n        }\n\n        uint possibleWinAmount;\n\n        possibleWinAmount = getSpinWinAmount(amount, betOptions, rollUnder);\n\n        require (possibleWinAmount <= amount + maxProfit, \"Maximum Profit Limit Exceeded\");\n\n        lockedBets += uint128(possibleWinAmount);\n\n        require (lockedBets <= address(this).balance, \"Contract cannot afford for you to win this bet\");\n\n        emit Commit(commit);\n\n        bet.amount = amount;\n        bet.betOptions = uint8(betOptions);\n        bet.rollUnder = uint8(rollUnder);\n        bet.placeBetTxBlockNumber = uint40(block.number);\n        bet.mask = uint40(mask);\n        bet.bettor = msg.sender;\n    }\n\n    function settleBet(uint reveal, bytes32 blockHash) external onlyCroupier {\n    \tuint commit = uint(keccak256(abi.encodePacked(reveal)));\n\n    \tBet storage bet = bets[commit];\n    \tuint placeBetTxBlockNumber = bet.placeBetTxBlockNumber;\n\n    \trequire (block.number > placeBetTxBlockNumber, \"settleBet in the same block as placeBet, or before.\");\n        require (block.number <= placeBetTxBlockNumber + BET_EXP_BLOCKS, \"Blockhash can't be queried by EVM.\");\n        require (blockhash(placeBetTxBlockNumber) == blockHash);\n\n        settleBetCommon(bet, reveal, blockHash);\n    }\n\n        // For Uncle Blocks:\n\n    function settleBetUncleMerkleProof(uint reveal, uint40 canonicalBlockNumber) external onlyCroupier {\n    \tuint commit = uint(keccak256(abi.encodePacked(reveal)));\n\n    \tBet storage bet = bets[commit];\n\n    \trequire (block.number <= canonicalBlockNumber + BET_EXP_BLOCKS, \"Blockhash can't be queried by EVM.\");\n\n    \trequireCorrectReceipt(4 + 32 + 32 + 4);\n\n    \tbytes32 canonicalHash;\n        bytes32 uncleHash;\n        (canonicalHash, uncleHash) = verifyMerkleProof(commit, 4 + 32 + 32);\n        require (blockhash(canonicalBlockNumber) == canonicalHash);\n\n        settleBetCommon(bet, reveal, uncleHash);\n    }\n\n    function settleBetCommon(Bet storage bet, uint reveal, bytes32 entropyBlockHash) private {\n    \tuint amount = bet.amount;\n    \tuint betOptions = bet.betOptions;\n    \tuint rollUnder = bet.rollUnder;\n    \taddress payable bettor = bet.bettor;\n\n    \trequire (amount != 0, \"Bet should be in an 'active' state\");\n\n    \tbet.amount = 0;\n\n    \tbytes32 entropy = keccak256(abi.encodePacked(reveal, entropyBlockHash));\n\n    \tuint spin = uint(entropy) % betOptions;\n\n    \tuint spinWinAmount;\n    \tspinWinAmount = getSpinWinAmount(amount, betOptions, rollUnder);\n\n    \tuint spinWin = 0;\n\n    \tif (betOptions <= MAX_MASK_BITS) {\n    \t\tif ((2**spin) & bet.mask !=0) {\n    \t\t\tspinWin = spinWinAmount;\n    \t\t}\n    \t} else {\n    \t\tif (spin < rollUnder) {\n    \t\t\tspinWin = spinWinAmount;\n    \t\t}\n    \t}\n\n    \tlockedBets -= uint128(spinWinAmount);\n\n    \tsendFunds(bettor, spinWin == 0 ? 1 wei : spinWin, spinWin);\n\n    }\n\n    function refundBet(uint commit) external {\n    \tBet storage bet = bets[commit];\n    \tuint amount = bet.amount;\n    \trequire (amount != 0, \"Bet should be in an 'active' state\");\n    \trequire (block.number > bet.placeBetTxBlockNumber + BET_EXP_BLOCKS, \"Blockhash can't be queried by EVM\");\n    \tbet.amount = 0;\n    \tuint spinWinAmount;\n    \tspinWinAmount = getSpinWinAmount(amount, bet.betOptions, bet.rollUnder);\n    \tlockedBets -= uint128(spinWinAmount);\n    \tsendFunds(bet.bettor, amount, amount);\n    }\n\n    function getSpinWinAmount(uint amount, uint betOptions, uint rollUnder) private pure returns (uint winAmount) {\n    \trequire (0 < rollUnder && rollUnder <= betOptions, \"Win probability out of range.\");\n\n        uint houseEdge = amount * HOUSE_EDGE_PERCENT / 100;\n\n        if (houseEdge < HOUSE_EDGE_MIN) {\n            houseEdge = HOUSE_EDGE_MIN;\n        }\n\n        require (houseEdge <= amount, \"Bet doesn't even cover house edge.\");\n        winAmount = (amount - houseEdge) * betOptions / rollUnder;\n    }\n\n    function sendFunds(address payable beneficiary, uint amount, uint successLogAmount) private {\n        if (beneficiary.send(amount)) {\n            emit Payment(beneficiary, successLogAmount);\n        } else {\n            emit FailedPayment(beneficiary, amount);\n        }\n    }\n\n\n    uint constant POPCNT_MULT = 0x0000000000002000000000100000000008000000000400000000020000000001;\n    uint constant POPCNT_MASK = 0x0001041041041041041041041041041041041041041041041041041041041041;\n    uint constant POPCNT_MODULO = 0x3F;\n\n    // Helper to verify a full merkle proof starting from some seedHash\n    function verifyMerkleProof(uint seedHash, uint offset) pure private returns (bytes32 blockHash, bytes32 uncleHash) {\n        uint scratchBuf1;  assembly { scratchBuf1 := mload(0x40) }\n        uint uncleHeaderLength; uint blobLength; uint shift; uint hashSlot;\n\n        for (;; offset += blobLength) {\n            assembly { blobLength := and(calldataload(sub(offset, 30)), 0xffff) }\n            if (blobLength == 0) {\n                break;\n            }\n\n            assembly { shift := and(calldataload(sub(offset, 28)), 0xffff) }\n            require (shift + 32 <= blobLength, \"Shift bounds check.\");\n\n            offset += 4;\n            assembly { hashSlot := calldataload(add(offset, shift)) }\n            require (hashSlot == 0, \"Non-empty hash slot.\");\n\n            assembly {\n                calldatacopy(scratchBuf1, offset, blobLength)\n                mstore(add(scratchBuf1, shift), seedHash)\n                seedHash := keccak256(scratchBuf1, blobLength)\n                uncleHeaderLength := blobLength\n            }\n        }\n\n        uncleHash = bytes32(seedHash);\n        uint scratchBuf2 = scratchBuf1 + uncleHeaderLength;\n        uint unclesLength; assembly { unclesLength := and(calldataload(sub(offset, 28)), 0xffff) }\n        uint unclesShift;  assembly { unclesShift := and(calldataload(sub(offset, 26)), 0xffff) }\n        require (unclesShift + uncleHeaderLength <= unclesLength, \"Shift bounds check.\");\n\n        offset += 6;\n        assembly { calldatacopy(scratchBuf2, offset, unclesLength) }\n        memcpy(scratchBuf2 + unclesShift, scratchBuf1, uncleHeaderLength);\n\n        assembly { seedHash := keccak256(scratchBuf2, unclesLength) }\n\n        offset += unclesLength;\n        assembly {\n            blobLength := and(calldataload(sub(offset, 30)), 0xffff)\n            shift := and(calldataload(sub(offset, 28)), 0xffff)\n        }\n        require (shift + 32 <= blobLength, \"Shift bounds check.\");\n\n        offset += 4;\n        assembly { hashSlot := calldataload(add(offset, shift)) }\n        require (hashSlot == 0, \"Non-empty hash slot.\");\n\n        assembly {\n            calldatacopy(scratchBuf1, offset, blobLength)\n            mstore(add(scratchBuf1, shift), seedHash)\n            blockHash := keccak256(scratchBuf1, blobLength)\n        }\n    }\n\n    //Helper to check the placeBet receipt\n    function requireCorrectReceipt(uint offset) view private {\n        uint leafHeaderByte; assembly { leafHeaderByte := byte(0, calldataload(offset)) }\n\n        require (leafHeaderByte >= 0xf7, \"Receipt leaf longer than 55 bytes.\");\n        offset += leafHeaderByte - 0xf6;\n\n        uint pathHeaderByte; assembly { pathHeaderByte := byte(0, calldataload(offset)) }\n\n        if (pathHeaderByte <= 0x7f) {\n            offset += 1;\n\n        } else {\n            require (pathHeaderByte >= 0x80 && pathHeaderByte <= 0xb7, \"Path is an RLP string.\");\n            offset += pathHeaderByte - 0x7f;\n        }\n\n        uint receiptStringHeaderByte; assembly { receiptStringHeaderByte := byte(0, calldataload(offset)) }\n        require (receiptStringHeaderByte == 0xb9, \"Receipt string is always at least 256 bytes long, but less than 64k.\");\n        offset += 3;\n\n        uint receiptHeaderByte; assembly { receiptHeaderByte := byte(0, calldataload(offset)) }\n        require (receiptHeaderByte == 0xf9, \"Receipt is always at least 256 bytes long, but less than 64k.\");\n        offset += 3;\n\n        uint statusByte; assembly { statusByte := byte(0, calldataload(offset)) }\n        require (statusByte == 0x1, \"Status should be success.\");\n        offset += 1;\n\n        uint cumGasHeaderByte; assembly { cumGasHeaderByte := byte(0, calldataload(offset)) }\n        if (cumGasHeaderByte <= 0x7f) {\n            offset += 1;\n\n        } else {\n            require (cumGasHeaderByte >= 0x80 && cumGasHeaderByte <= 0xb7, \"Cumulative gas is an RLP string.\");\n            offset += cumGasHeaderByte - 0x7f;\n        }\n\n        uint bloomHeaderByte; assembly { bloomHeaderByte := byte(0, calldataload(offset)) }\n        require (bloomHeaderByte == 0xb9, \"Bloom filter is always 256 bytes long.\");\n        offset += 256 + 3;\n\n        uint logsListHeaderByte; assembly { logsListHeaderByte := byte(0, calldataload(offset)) }\n        require (logsListHeaderByte == 0xf8, \"Logs list is less than 256 bytes long.\");\n        offset += 2;\n\n        uint logEntryHeaderByte; assembly { logEntryHeaderByte := byte(0, calldataload(offset)) }\n        require (logEntryHeaderByte == 0xf8, \"Log entry is less than 256 bytes long.\");\n        offset += 2;\n\n        uint addressHeaderByte; assembly { addressHeaderByte := byte(0, calldataload(offset)) }\n        require (addressHeaderByte == 0x94, \"Address is 20 bytes long.\");\n\n        uint logAddress; assembly { logAddress := and(calldataload(sub(offset, 11)), 0xffffffffffffffffffffffffffffffffffffffff) }\n        require (logAddress == uint(address(this)));\n    }\n\n    //Memory Copy\n\n    function memcpy(uint dest, uint src, uint len) pure private {\n        // Full 32 byte words\n        for(; len >= 32; len -= 32) {\n            assembly { mstore(dest, mload(src)) }\n            dest += 32; src += 32;\n        }\n\n        // Remaining bytes\n        uint mask = 256 ** (32 - len) - 1;\n        assembly {\n            let srcpart := and(mload(src), not(mask))\n            let destpart := and(mload(dest), mask)\n            mstore(dest, or(destpart, srcpart))\n        }\n    }\n}",
  "sourcePath": "/Users/admin/Desktop/Coding/coin_spin/contracts/CoinSpin.sol",
  "compiler": {
    "name": "solc",
    "version": "0.5.8+commit.23d335f2.Emscripten.clang"
  },
  "schemaVersion": "3.0.16",
  "updatedAt": "2020-06-08T16:04:51.929Z",
  "devdoc": {
    "methods": {}
  },
  "userdoc": {
    "methods": {}
  }
}